:020000040800F2
:100000007805002045010008410900081108000892
:100010003D090008B3020008EB11000800000000D1
:10002000000000000000000000000000E10A0008DD
:10003000F506000800000000C9090008F50B0008DB
:100040005F0100085F0100085F0100085F01000810
:100050005F0100085F0100085F0100085F01000800
:100060005F0100085F0100085F0100085F010008F0
:100070005F0100085F0100085F0100085F010008E0
:100080005F0100085F0100085F0100085F010008D0
:100090005F0100085F0100085F0100085F010008C0
:1000A0005F0100085F0100085F0100085F010008B0
:1000B0005F0100085F010008950C00085F0100085F
:1000C0005F0100085F0100085F0100085F01000890
:1000D0005F010008E50E00085F0100085F010008ED
:1000E0005F0100085F0100085F0100085F01000870
:1000F0005F0100085F0100085F0100085F01000860
:100100005F0100085F0100085F0100085F0100084F
:100110005F0100085F0100085F0100085F0100083F
:100120005F0100085F0100085F0100085F0100082F
:10013000DFF80CD000F092F800480047B112000838
:10014000780500200648804706480047FEE7FEE79E
:10015000FEE7FEE7FEE7FEE7FEE7FEE7FEE7FEE777
:10016000350C0008310100080EB540F23341029110
:100170000021CDE900110A460B4600F020F803B03B
:1001800000BD202A04DB203A00FA02F1002070476B
:100190009140C2F1200320FA03F3194390407047C5
:1001A00010B5141E73F1000408DA401C41F100017F
:1001B00092185B411A4301D120F0010010BD2DE9D6
:1001C000F04D92469B4611B1B1FA81F202E0B0FACD
:1001D00080F220329046FFF7D4FF04460F4640EAF3
:1001E0000A0041EA0B0153465A46084313D0114610
:1001F00053EA010019D0C8F14002504600F040F81F
:1002000005460E46504659464246FFF7BAFF084398
:1002100005D0012004E020463946BDE8F08D0020DD
:10022000054346EAE0762C4337430A986305E40A1F
:10023000A0EB08000022FD0A44EA47540A3002D528
:1002400000200146E9E7010510196941DDE908458B
:1002500000196941BDE8F04DA2E70000064C074DCA
:1002600006E0E06840F0010394E807009847103486
:10027000AC42F6D3FFF760FFCC140008EC14000882
:10028000202A04DB203A21FA02F00021704721FAEB
:1002900002F3D040C2F12002914008431946704752
:1002A00001210175704742680A61704742680A611E
:1002B000704700BFFEE7000010B50021837A0122DD
:1002C00002FA03F13D4A126842F001023B4B1A6008
:1002D0003A4A1C3212688A43384B1C331A60027B3C
:1002E000CAB9364A0C3212688A43344B0C331A604E
:1002F0004288C38842EA0343304A4032847A42F853
:1003000034300288838842EA03432C4A4032847A9C
:1003100002EBC4025360027B012A19D1274A0C3236
:1003200012680A43254B0C331A604288038842EA5C
:100330000343224A4032847A42F83430C2888388A8
:1003400042EA03431D4A4032847A02EBC4025360FE
:10035000C27A3AB9194A121D12688A43174B1B1DFB
:100360001A6006E0154A121D12680A43134B1B1D42
:100370001A60028932B9114A143212688A430F4B4B
:1003800014331A600289012A06D10C4A1432126809
:100390000A430A4B14331A60427B012A06D1074AEA
:1003A0001C3212680A43054B1C331A60034A126858
:1003B00022F00102014B1A6010BD000000660040EF
:1003C00030B5024600200023146824F002041460B3
:1003D000146844F00104146000E05B1C546804F0ED
:1003E00001041CB94FF6FF74A342F6D1546804F01F
:1003F00001040CB900206CE08C79012C04D1146844
:1004000044F08004146003E0146824F08004146055
:10041000CC79012C04D1146844F04004146003E04A
:10042000146824F0400414600C7A012C04D1146880
:1004300044F02004146003E0146824F020041460E5
:100440004C7A012C04D1146844F01004146003E0C9
:10045000146824F0100414608C7A012C04D1146800
:1004600044F00804146003E0146824F008041460E5
:10047000CC7A012C04D1146844F00404146003E025
:10048000146824F0040414608C78A407CD7844EA3E
:1004900005640D7944EA05444D7944EA05540D8814
:1004A0006D1E2C43D461146824F0010414600023F1
:1004B00000E05B1C546804F001041CB14FF6FF74AB
:1004C000A342F6D1546804F001040CB1002000E00E
:1004D000012030BD0246002019B9D36803F00300A3
:1004E00006E0012903D1136903F0030000E00020B6
:1004F000704700002DE9F04188B004460D461646CD
:1005000098460E9F0121480600F060FA0121042060
:1005100000F06CFA4FF40060ADF81C0048208DF834
:100520001F0007A9254800F0E6F84FF48050ADF809
:100530001C0018208DF81F0003208DF81E0007A94D
:100540001E4800F0D8F800208DF816008DF817002E
:100550008DF8180001208DF8190000208DF81A0080
:100560008DF81B008DF812708DF813408DF8146013
:100570008DF815500420ADF8100004A91048FFF7BD
:100580001FFF00208DF80A008DF80B0001208DF868
:100590000C000020ADF80000ADF80200ADF804003A
:1005A000ADF80600ADF8080001208DF80D00684692
:1005B000FFF782FE08B0BDE8F081000000080140AE
:1005C0000064004010B500F5D87303EB01131B68FD
:1005D00003F004031372137A53B900F5D87303EBD5
:1005E00001131B6840F2FF7404EA5353136009E0DF
:1005F00000F5D87303EB01131B686FF0604404EA45
:10060000D303536000F5D87303EB01131B6803F0A9
:100610000203537200F5D87303EB01135B6803F018
:100620000F03937200F5D87303EB01135B681B0A89
:10063000D37400F5D87303EB01139B68D37200F5F4
:10064000D87303EB01139B681C0A147300F5D8736D
:1006500003EB01139B681C0C547300F5D87303EB78
:1006600001139B681B0E937300F5D87303EB011302
:10067000DB68D37300F5D87303EB0113DB681C0A46
:10068000147400F5D87303EB0113DB681C0C54746D
:1006900000F5D87303EB0113DB681B0E937421B9CB
:1006A000C36843F02003C36003E0036943F0200301
:1006B000036110BD30B585B0054600210C48FFF739
:1006C00009FF10B9002005B030BD6A460021084876
:1006D000FFF778FF002404E00DF10B00005D2855C2
:1006E000641C9DF80A00A042F6D80098EBE70000D1
:1006F0000064004070472DE9F041024600250026C5
:10070000002000230024002791F803C00CF00F05FF
:1007100091F803C00CF0100CBCF1000F03D091F85D
:1007200002C04CEA050591F800C0BCF1000F31D0C1
:10073000146800202BE04FF0010C0CFA00F3B1F824
:1007400000C00CEA03069E4220D183004FF00F0C3C
:100750000CFA03F7BC4305FA03FC4CEA040491F8D5
:1007600003C0BCF1280F06D14FF0010C0CFA00FCBD
:10077000C2F814C00AE091F803C0BCF1480F05D1DB
:100780004FF0010C0CFA00FCC2F810C0401C082805
:10079000D1D31460B1F800C0BCF1FF0F34DD546850
:1007A00000202EE000F1080C4FF0010808FA0CF3CD
:1007B000B1F800C00CEA03069E4221D183004FF03D
:1007C0000F0C0CFA03F7BC4305FA03FC4CEA0404D3
:1007D00091F803C0BCF1280F05D100F1080C08FA0C
:1007E0000CF8C2F8148091F803C0BCF1480F07D18F
:1007F00000F1080C4FF0010808FA0CF8C2F810805C
:10080000401C0828CED35460BDE8F08101617047D8
:1008100000BFFEE708B50121442000F0E7F8012001
:10082000ADF8000028208DF8030069460648FFF760
:1008300062FF1C20ADF8000048208DF803006946D7
:100840000248FFF758FF08BD0008014000180140AA
:1008500010B50446012C01D12249087021480078C6
:1008600001282AD12048006801280AD01F480068C2
:1008700038B11E48001F006818B11C4808380068CD
:10088000D8B90A2000F0DCFC002016490870164890
:100890000068012800D110BD1448006808B9022082
:1008A000F9E71248001F006808B90320F3E70F4872
:1008B00008380068A0B90420EDE70B48006878B953
:1008C0000A48006801280BD10848001F0068012869
:1008D00006D1064808380068012801D1014908708E
:1008E0000020D8E71400002000012142100123421B
:1008F00008B50121482000F079F82020ADF800006B
:1009000010208DF8030003208DF802006946094885
:10091000FFF7F1FE20210748FFF778FF2020ADF810
:10092000000069460448FFF7E6FE20210248FFF771
:100930006DFF08BD000C01400018014000BFFEE73C
:100940007047000070B5002100230F22C47804B363
:10095000154C246804F4E064C4F5E064210AC1F194
:100960000403CA40447804FA03F184781440214314
:1009700009010E4C0678A155047804F01F050124E6
:10098000AC4005786D11AD0005F1E025C5F80041DA
:1009900009E0047804F01F050124AC40044D0678FA
:1009A000761145F8264070BD0CED00E000E400E053
:1009B00080E100E002490143024A116070470000F3
:1009C0000000FA050CED00E07047000029B1064A6E
:1009D000D2690243044BDA6104E0034AD2698243DC
:1009E000014BDA61704700000010024029B1064A4D
:1009F00092690243044B9A6104E0034A926982437C
:100A0000014B9A61704700000010024030B5002190
:100A10000022002400232D4D6D6805F00C0121B14A
:100A2000042905D0082923D105E0294D056022E0DD
:100A3000274D05601FE0254D6D6805F47012234DAC
:100A40006D6805F48034022505EB92421CB9214DF6
:100A5000554305600BE01D4D6D6805F400351DB173
:100A60001C4D5543056002E0194D5543056002E0F9
:100A7000174D056000BF00BF144D6D6805F0F00113
:100A80000909154D6B5C0568DD4045600F4D6D68CB
:100A900005F4E061090A104D6B5C4568DD40856036
:100AA0000A4D6D6805F46051C90A0B4D6B5C4568D1
:100AB000DD40C560054D6D6805F44041890B074D6B
:100AC0006B5CC568B5FBF3F5056130BD00100240F5
:100AD00000127A0000093D000000002010000020F4
:100AE000704710B500F002F810BD00000CB50020F2
:100AF000019000903348006840F48030314908602C
:100B000000BF3048006800F4003000900198401C9D
:100B10000190009818B90198B0F5A06FF1D129485B
:100B2000006800F4003010B10120009001E00020C6
:100B300000900098012843D12348006840F010003D
:100B4000214908600846006820F003000860084654
:100B5000006840F0020008601A484068194948607F
:100B60000846406848600846406840F48060486035
:100B70000846406820F47C1048600846406840F40D
:100B8000E81048600846006840F08070086000BFC8
:100B90000C48006800F000700028F9D0094840684F
:100BA00020F00300074948600846406840F0020012
:100BB000486000BF0348406800F00C000828F9D1E5
:100BC0000CBD00000010024000200240042808D1A3
:100BD0004FF0E021096941F004014FF0E02211617A
:100BE00007E04FF0E021096921F004014FF0E02215
:100BF000116170477047000010B504466FF00400A3
:100C0000FFF7E4FFE11704EB5171C1F3C701074A95
:100C100011701046007800EB4001C1EBC0104FF698
:100C2000FF7101EAC0000249088010BD16000020D3
:100C30001800002010B51348006840F00100114969
:100C4000086008464068104908400E494860084658
:100C500000680E4908400B4908600846006820F407
:100C6000802008600846406820F4FE0048604FF489
:100C70001F008860FFF735FF4FF0006004490860EF
:100C800010BD0000001002400000FFF8FFFFF6FE5C
:100C900008ED00E010B50121384800F0B6F8002852
:100CA00067D037480078401C3549087008460078FE
:100CB0000A280EDB00200870012048700846807862
:100CC000401CC0B288700A2803DB00208870012015
:100CD000C8702B48C07801280BD129484079401CA6
:100CE000C0B227494871022803DB00204871012067
:100CF00008712348C07801280BD121488079401C15
:100D0000C0B21F498871052803DB002088710120CB
:100D1000C8711B48C07901280BD11948007A401CC2
:100D2000C0B217490872022803DB002008720120B4
:100D300048721348407A01280BD11148807A401C30
:100D4000C0B20F4988720A2803DB00208872012094
:100D5000C8720B48C07A01280BD10948007B401C9F
:100D6000C0B207490873062803DB0020087301207E
:100D700048730121014800F039F810BD0008004017
:100D8000FC0000207FB505460C4601210420FFF73A
:100D90001DFEADF80850ADF804400020ADF80A0083
:100DA000ADF8060001A9104800F04AF801221146EA
:100DB0000D4800F03BF801210B4800F017F81E2009
:100DC0008DF8000002208DF8010003208DF802004C
:100DD00001208DF803006846FFF7B4FD01210248A9
:100DE00000F007F87FBD000000080040CA430282FF
:100DF000704721B1028842F00102028004E00288BB
:100E00004FF6FE731A400280704730B5024600204C
:100E100000230024158A05EA0103958905EA0104E7
:100E200013B10CB1012000E0002030BD1AB183895C
:100E30000B43838102E083898B43838170470000E9
:100E4000002202881D4B98420ED01D4B98420BD0B9
:100E5000B0F1804F08D01B4B984205D01A4B9842F6
:100E600002D01A4B984204D14FF68F731A404B8828
:100E70001A43174B984207D0164B984204D04FF6AE
:100E8000FF431A40CB881A4302808B8883850B88E6
:100E900003850A4B98420BD0094B984208D00E4B61
:100EA000984205D00D4B984202D00D4B984201D18B
:100EB0000B7A03860123838270470000002C0140D7
:100EC000003401400004004000080040000C0040D5
:100ED0000010004000140040004001400044014068
:100EE0000048014010B540F225511D4800F0B8F807
:100EF00010B31B4800F070F9C4B21A48008800F41F
:100F00000040C8B91748008800F4804060B10A2C3E
:100F100003D000201349088020E01248008840F4E4
:100F200000401049088019E00D2C06D10D480088BA
:100F300040F480400B49088010E00A480088C0F364
:100F40000D0009490C5407480088401C05490880D9
:100F500008460088C72801DD0020088010BD000079
:100F6000003801401A0000203400002010B586B07F
:100F7000044601210420FFF739FD01218803FFF712
:100F800035FD4FF40070ADF8140003208DF8160005
:100F900018208DF8170005A91E48FFF7ACFB4FF489
:100FA0008060ADF8140004208DF8170005A91948D9
:100FB000FFF7A1FB01940020ADF80800ADF80A008E
:100FC000ADF80C00ADF810000C20ADF80E0001A932
:100FD000114800F095F801210F4800F028F8402151
:100FE0000D4800F01BF8012240F225510A4800F09C
:100FF00061F825208DF8000003208DF801008DF8A0
:10100000020001208DF803006846FFF79BFC06B044
:1010100010BD0000000801400038014001F40072DA
:10102000B2F5007F00D100BFCA430280704721B1F2
:10103000828942F40052828104E082894DF6FF7376
:101040001A408281704702460020B1F5007F00D12E
:1010500000BF13880B400BB1012000E00020704757
:1010600070B50246002400230025002040F66A16D1
:10107000B14200D100BFC1F3421501F01F030126A8
:1010800006FA03F3012D02D19689334006E0022DC2
:1010900002D1168A334001E0968A33400C120126B1
:1010A00006FA04F41688344013B10CB1012000E0B4
:1010B000002070BDF0B50346002400260025002066
:1010C00040F66A17B94200D100BF1846C1F3421476
:1010D00001F01F06012707FA06F5012C01D10C309B
:1010E00004E0022C01D1103000E014301AB107687E
:1010F0002F43076002E00768AF430760F0BD0000C0
:101100002DE9F04786B005460E460024A24600BFF2
:10111000A1460027B08900B100BF2F462C8A4CF6AB
:10112000FF700440F08804432C82AC894EF6F31023
:101130000440B08831890843718908430443AC8175
:10114000AC8A4FF6FF400440B0890443AC8201A84A
:10115000FFF75CFC1F48874202D1DDF810A001E0D8
:10116000DDF80CA0A88900F4004040B10AEBCA00E9
:1011700000EB0A1031684900B0FBF1F807E00AEB18
:10118000CA0000EB0A1031688900B0FBF1F8642056
:10119000B8FBF0F004012009642101FB1089A88943
:1011A00000F4004040B1322000EBC900B0FBF1F088
:1011B00000F00700044308E0322000EB091064212E
:1011C000B0FBF1F000F00F0004432C8106B0BDE845
:1011D000F08700000038014001468888C0F308000D
:1011E0007047C1F308028280704700BFFEE700002D
:1011F000014A024900F013B88D12000830000020A7
:1012000002E008C8121F08C1002AFAD170477047CF
:10121000002001E001C1121F002AFBD170472DE917
:10122000F04116460F460446002503E03946B04714
:10123000641C6D1C20780028F8D12846BDE8F08198
:101240000146114A12884A434FF0E0235A610022B6
:101250009A611A46126942F001021A6100BF4FF00A
:10126000E022106900F001021AB100F48032002A75
:10127000F5D04FF0E022126922F001024FF0E02396
:101280001A6100229A6170471800002070B5044668
:101290000D46E1B20548FFF7A4FF00BF80210348D7
:1012A000FFF7D1FE0028F9D0204670BD003801407C
:1012B00086B0002700254820FFF79EFC4FF4A06071
:1012C000FFF778FBFFF714FB4FF4E130FFF74EFE1A
:1012D000FFF7A0FA00200423082207210090FFF75F
:1012E00009F948F69F41C820FFF74CFD00F06CF863
:1012F00052E00020FFF7ACFA0446012C12D105B9E8
:1013000000E0002005460423082207210020009564
:10131000FFF7F0F81DB921A0FFF76AFF02E023A054
:10132000FFF766FF04A8FFF7C5F90646642E1BD138
:10133000082204A902A800F07CF8BDF8080000F01B
:101340006FF830B1BDF80800FEF70EFF1B4AC2E986
:101350000201BDF80C0000F05CF828B1BDF80C00EB
:10136000FEF702FF154A03C200211548134AC2E9DD
:101370000410781CC7B2142097FBF0F100FB117029
:1013800038B91048006808B9012000E000200D4974
:1013900008600A20FFF754FFABE700004E6F726D44
:1013A000616C204D6F64650D0A0000004C6F6F701A
:1013B0004261636B204D6F64650D0A00600100207F
:1013C000000056409481214200B50A490A4800684D
:1013D000FEF769FF0749183907480068FEF766FFFE
:1013E0000548006840680349183988640148FEF7D9
:1013F00057FF00BD28010020B8140008034603EA87
:101400000200884080B27047034603EA02000841A8
:1014100070470146642901D8012070470020FCE78D
:10142000014641F28830814201D8012070470020F6
:10143000FCE770B504460D461646082E02D26FF042
:10144000150070BD2878FF220021FFF7DDFF208006
:101450006878FF220821FFF7D1FF21880843208008
:10146000A878FF220021FFF7CFFF6080E878FF22F5
:101470000821FFF7C3FF6188084360802879FF22B5
:101480000021FFF7C1FFA0806879FF220821FFF744
:10149000B5FFA1880843A080A879FF220021FFF7AB
:1014A000B3FFE080E879FF220821FFF7A7FFE1887A
:1014B0000843E0800020C4E728000020E2ECF600AA
:1014C0000A192D374650555A5C646363EC140008C2
:1014D0000000002034000000001200082015000861
:1014E0003400002044050000101200080000000035
:1014F00001020304010203040607080902040608A6
:1015000001000000000000000000000000000000DA
:1015100000000000000000000000000000000000CB
:0400000508000131BD
:00000001FF
